{
  "contractName": "ExampleOracleSimple",
  "abi": [
    {
      "inputs": [
        {
          "internalType": "address",
          "name": "factory",
          "type": "address"
        },
        {
          "internalType": "address",
          "name": "tokenA",
          "type": "address"
        },
        {
          "internalType": "address",
          "name": "tokenB",
          "type": "address"
        }
      ],
      "stateMutability": "nonpayable",
      "type": "constructor"
    },
    {
      "inputs": [],
      "name": "PERIOD",
      "outputs": [
        {
          "internalType": "uint256",
          "name": "",
          "type": "uint256"
        }
      ],
      "stateMutability": "view",
      "type": "function"
    },
    {
      "inputs": [],
      "name": "blockTimestampLast",
      "outputs": [
        {
          "internalType": "uint32",
          "name": "",
          "type": "uint32"
        }
      ],
      "stateMutability": "view",
      "type": "function"
    },
    {
      "inputs": [],
      "name": "price0Average",
      "outputs": [
        {
          "internalType": "uint224",
          "name": "_x",
          "type": "uint224"
        }
      ],
      "stateMutability": "view",
      "type": "function"
    },
    {
      "inputs": [],
      "name": "price0CumulativeLast",
      "outputs": [
        {
          "internalType": "uint256",
          "name": "",
          "type": "uint256"
        }
      ],
      "stateMutability": "view",
      "type": "function"
    },
    {
      "inputs": [],
      "name": "price1Average",
      "outputs": [
        {
          "internalType": "uint224",
          "name": "_x",
          "type": "uint224"
        }
      ],
      "stateMutability": "view",
      "type": "function"
    },
    {
      "inputs": [],
      "name": "price1CumulativeLast",
      "outputs": [
        {
          "internalType": "uint256",
          "name": "",
          "type": "uint256"
        }
      ],
      "stateMutability": "view",
      "type": "function"
    },
    {
      "inputs": [],
      "name": "token0",
      "outputs": [
        {
          "internalType": "address",
          "name": "",
          "type": "address"
        }
      ],
      "stateMutability": "view",
      "type": "function"
    },
    {
      "inputs": [],
      "name": "token1",
      "outputs": [
        {
          "internalType": "address",
          "name": "",
          "type": "address"
        }
      ],
      "stateMutability": "view",
      "type": "function"
    },
    {
      "inputs": [],
      "name": "update",
      "outputs": [],
      "stateMutability": "nonpayable",
      "type": "function"
    },
    {
      "inputs": [
        {
          "internalType": "address",
          "name": "token",
          "type": "address"
        },
        {
          "internalType": "uint256",
          "name": "amountIn",
          "type": "uint256"
        }
      ],
      "name": "consult",
      "outputs": [
        {
          "internalType": "uint256",
          "name": "amountOut",
          "type": "uint256"
        }
      ],
      "stateMutability": "view",
      "type": "function"
    }
  ],
  "bytecode": "0x60e06040523480156200001157600080fd5b50604051620012d0380380620012d0833981810160405260608110156200003757600080fd5b50805160208083015160409093015191929190600090620000679085908590859062000a296200037d821b17901c565b9050806001600160a01b03166080816001600160a01b031660601b81525050806001600160a01b0316630dfe16816040518163ffffffff1660e01b815260040160206040518083038186803b158015620000c057600080fd5b505afa158015620000d5573d6000803e3d6000fd5b505050506040513d6020811015620000ec57600080fd5b505160601b6001600160601b03191660a0526040805163d21220a760e01b815290516001600160a01b0383169163d21220a7916004808301926020929190829003018186803b1580156200013f57600080fd5b505afa15801562000154573d6000803e3d6000fd5b505050506040513d60208110156200016b57600080fd5b505160601b6001600160601b03191660c05260408051635909c0d560e01b815290516001600160a01b03831691635909c0d5916004808301926020929190829003018186803b158015620001be57600080fd5b505afa158015620001d3573d6000803e3d6000fd5b505050506040513d6020811015620001ea57600080fd5b505160005560408051635a3d549360e01b815290516001600160a01b03831691635a3d5493916004808301926020929190829003018186803b1580156200023057600080fd5b505afa15801562000245573d6000803e3d6000fd5b505050506040513d60208110156200025c57600080fd5b505160015560408051630240bc6b60e21b8152905160009182916001600160a01b03851691630902f1ac916004808301926060929190829003018186803b158015620002a757600080fd5b505afa158015620002bc573d6000803e3d6000fd5b505050506040513d6060811015620002d357600080fd5b50805160208201516040909201516002805463ffffffff191663ffffffff909216919091179055925090506001600160701b038216158015906200031f57506001600160701b03811615155b62000371576040805162461bcd60e51b815260206004820181905260248201527f4578616d706c654f7261636c6553696d706c653a204e4f5f5245534552564553604482015290519081900360640190fd5b5050505050506200053d565b600080806200039685856001600160e01b036200045a16565b604080516001600160601b0319606094851b811660208084019190915293851b81166034830152825160288184030181526048830184528051908501207fff0000000000000000000000000000000000000000000000000000000000000060688401529a90941b9093166069840152607d8301989098527fc2202e4ff587396e82a39b15c07b6ad13f1e8a6b4b8331c90eaf9979a6af1f3e609d808401919091528851808403909101815260bd909201909752805196019590952095945050505050565b600080826001600160a01b0316846001600160a01b03161415620004b05760405162461bcd60e51b8152600401808060200182810382526025815260200180620012ab6025913960400191505060405180910390fd5b826001600160a01b0316846001600160a01b031610620004d2578284620004d5565b83835b90925090506001600160a01b03821662000536576040805162461bcd60e51b815260206004820152601e60248201527f5365615377617056324c6962726172793a205a45524f5f414444524553530000604482015290519081900360640190fd5b9250929050565b60805160601c60a05160601c60c05160601c610d2e6200057d600039806102a952806105da5250806101cd52806101f35250806103e45250610d2e6000f3fe608060405234801561001057600080fd5b50600436106100be5760003560e01c8063a2e6204511610076578063b4d1d7951161005b578063b4d1d7951461019a578063c5700a02146101a2578063d21220a7146101c3576100be565b8063a2e6204514610188578063a6bb453914610192576100be565b80635909c0d5116100a75780635909c0d51461013f5780635a3d5493146101475780635e6aaf2c1461014f576100be565b80630dfe1681146100c35780633ddac953146100f4575b600080fd5b6100cb6101cb565b6040805173ffffffffffffffffffffffffffffffffffffffff9092168252519081900360200190f35b61012d6004803603604081101561010a57600080fd5b5073ffffffffffffffffffffffffffffffffffffffff81351690602001356101ef565b60408051918252519081900360200190f35b61012d6103aa565b61012d6103b0565b6101576103b6565b604080517bffffffffffffffffffffffffffffffffffffffffffffffffffffffff9092168252519081900360200190f35b6101906103da565b005b6101576105a1565b61012d6105c5565b6101aa6105cc565b6040805163ffffffff9092168252519081900360200190f35b6100cb6105d8565b7f000000000000000000000000000000000000000000000000000000000000000081565b60007f000000000000000000000000000000000000000000000000000000000000000073ffffffffffffffffffffffffffffffffffffffff168373ffffffffffffffffffffffffffffffffffffffff1614156102a75760408051602081019091526003547bffffffffffffffffffffffffffffffffffffffffffffffffffffffff16815261028c90610287908463ffffffff6105fc16565b6106a9565b71ffffffffffffffffffffffffffffffffffff1690506103a4565b7f000000000000000000000000000000000000000000000000000000000000000073ffffffffffffffffffffffffffffffffffffffff168373ffffffffffffffffffffffffffffffffffffffff161461034b576040517f08c379a0000000000000000000000000000000000000000000000000000000008152600401808060200182810382526022815260200180610c686022913960400191505060405180910390fd5b60408051602081019091526004547bffffffffffffffffffffffffffffffffffffffffffffffffffffffff16815261038d90610287908463ffffffff6105fc16565b71ffffffffffffffffffffffffffffffffffff1690505b92915050565b60005481565b60015481565b6004547bffffffffffffffffffffffffffffffffffffffffffffffffffffffff1681565b60008060006104087f00000000000000000000000000000000000000000000000000000000000000006106b0565b600254929550909350915063ffffffff90811682039062015180908216101561047c576040517f08c379a0000000000000000000000000000000000000000000000000000000008152600401808060200182810382526027815260200180610c8a6027913960400191505060405180910390fd5b60405180602001604052808263ffffffff1660005487038161049a57fe5b047bffffffffffffffffffffffffffffffffffffffffffffffffffffffff9081169091529051600380547fffffffff0000000000000000000000000000000000000000000000000000000016919092161790556040805160208101909152600154819063ffffffff84169086038161050e57fe5b047bffffffffffffffffffffffffffffffffffffffffffffffffffffffff9081169091529051600480547fffffffff00000000000000000000000000000000000000000000000000000000169190921617905550600092909255600155600280547fffffffffffffffffffffffffffffffffffffffffffffffffffffffff000000001663ffffffff909216919091179055565b6003547bffffffffffffffffffffffffffffffffffffffffffffffffffffffff1681565b6201518081565b60025463ffffffff1681565b7f000000000000000000000000000000000000000000000000000000000000000081565b610604610a04565b600082158061063f57505082517bffffffffffffffffffffffffffffffffffffffffffffffffffffffff168281029083828161063c57fe5b04145b610694576040517f08c379a0000000000000000000000000000000000000000000000000000000008152600401808060200182810382526023815260200180610cb16023913960400191505060405180910390fd5b60408051602081019091529081529392505050565b5160701c90565b60008060006106bd610902565b90508373ffffffffffffffffffffffffffffffffffffffff16635909c0d56040518163ffffffff1660e01b815260040160206040518083038186803b15801561070557600080fd5b505afa158015610719573d6000803e3d6000fd5b505050506040513d602081101561072f57600080fd5b5051604080517f5a3d5493000000000000000000000000000000000000000000000000000000008152905191945073ffffffffffffffffffffffffffffffffffffffff861691635a3d549391600480820192602092909190829003018186803b15801561079b57600080fd5b505afa1580156107af573d6000803e3d6000fd5b505050506040513d60208110156107c557600080fd5b5051604080517f0902f1ac00000000000000000000000000000000000000000000000000000000815290519193506000918291829173ffffffffffffffffffffffffffffffffffffffff891691630902f1ac916004808301926060929190829003018186803b15801561083757600080fd5b505afa15801561084b573d6000803e3d6000fd5b505050506040513d606081101561086157600080fd5b5080516020820151604090920151909450909250905063ffffffff808216908516146108f85780840363ffffffff811661089b848661090c565b517bffffffffffffffffffffffffffffffffffffffffffffffffffffffff1602969096019563ffffffff81166108d1858561090c565b517bffffffffffffffffffffffffffffffffffffffffffffffffffffffff16029590950194505b5050509193909250565b63ffffffff421690565b610914610a17565b6000826dffffffffffffffffffffffffffff161161099357604080517f08c379a000000000000000000000000000000000000000000000000000000000815260206004820152601760248201527f4669786564506f696e743a204449565f42595f5a45524f000000000000000000604482015290519081900360640190fd5b6040805160208101909152806dffffffffffffffffffffffffffff84167bffffffffffffffffffffffffffff0000000000000000000000000000607087901b16816109da57fe5b047bffffffffffffffffffffffffffffffffffffffffffffffffffffffff16815250905092915050565b6040518060200160405280600081525090565b60408051602081019091526000815290565b6000806000610a388585610b14565b604080517fffffffffffffffffffffffffffffffffffffffff000000000000000000000000606094851b811660208084019190915293851b81166034830152825160288184030181526048830184528051908501207fff0000000000000000000000000000000000000000000000000000000000000060688401529a90941b9093166069840152607d8301989098527fc2202e4ff587396e82a39b15c07b6ad13f1e8a6b4b8331c90eaf9979a6af1f3e609d808401919091528851808403909101815260bd909201909752805196019590952095945050505050565b6000808273ffffffffffffffffffffffffffffffffffffffff168473ffffffffffffffffffffffffffffffffffffffff161415610b9c576040517f08c379a0000000000000000000000000000000000000000000000000000000008152600401808060200182810382526025815260200180610cd46025913960400191505060405180910390fd5b8273ffffffffffffffffffffffffffffffffffffffff168473ffffffffffffffffffffffffffffffffffffffff1610610bd6578284610bd9565b83835b909250905073ffffffffffffffffffffffffffffffffffffffff8216610c6057604080517f08c379a000000000000000000000000000000000000000000000000000000000815260206004820152601e60248201527f5365615377617056324c6962726172793a205a45524f5f414444524553530000604482015290519081900360640190fd5b925092905056fe4578616d706c654f7261636c6553696d706c653a20494e56414c49445f544f4b454e4578616d706c654f7261636c6553696d706c653a20504552494f445f4e4f545f454c41505345444669786564506f696e743a204d554c5449504c49434154494f4e5f4f564552464c4f575365615377617056324c6962726172793a204944454e544943414c5f414444524553534553a26469706673582212205877f7ef082a0ae3d95d2fca2462e74330aab85da12fb1480306c82852af90cb64736f6c634300060600335365615377617056324c6962726172793a204944454e544943414c5f414444524553534553",
  "source": "pragma solidity =0.6.6;\n\nimport '@seaswap/v2-core/contracts/interfaces/ISeaSwapV2Factory.sol';\nimport '@seaswap/v2-core/contracts/interfaces/ISeaSwapV2Pair.sol';\nimport '@uniswap/lib/contracts/libraries/FixedPoint.sol';\n\nimport '../libraries/SeaSwapV2OracleLibrary.sol';\nimport '../libraries/SeaSwapV2Library.sol';\n\n// fixed window oracle that recomputes the average price for the entire period once every period\n// note that the price average is only guaranteed to be over at least 1 period, but may be over a longer period\ncontract ExampleOracleSimple {\n    using FixedPoint for *;\n\n    uint public constant PERIOD = 24 hours;\n\n    ISeaSwapV2Pair immutable pair;\n    address public immutable token0;\n    address public immutable token1;\n\n    uint    public price0CumulativeLast;\n    uint    public price1CumulativeLast;\n    uint32  public blockTimestampLast;\n    FixedPoint.uq112x112 public price0Average;\n    FixedPoint.uq112x112 public price1Average;\n\n    constructor(address factory, address tokenA, address tokenB) public {\n        ISeaSwapV2Pair _pair = ISeaSwapV2Pair(SeaSwapV2Library.pairFor(factory, tokenA, tokenB));\n        pair = _pair;\n        token0 = _pair.token0();\n        token1 = _pair.token1();\n        price0CumulativeLast = _pair.price0CumulativeLast(); // fetch the current accumulated price value (1 / 0)\n        price1CumulativeLast = _pair.price1CumulativeLast(); // fetch the current accumulated price value (0 / 1)\n        uint112 reserve0;\n        uint112 reserve1;\n        (reserve0, reserve1, blockTimestampLast) = _pair.getReserves();\n        require(reserve0 != 0 && reserve1 != 0, 'ExampleOracleSimple: NO_RESERVES'); // ensure that there's liquidity in the pair\n    }\n\n    function update() external {\n        (uint price0Cumulative, uint price1Cumulative, uint32 blockTimestamp) =\n            SeaSwapV2OracleLibrary.currentCumulativePrices(address(pair));\n        uint32 timeElapsed = blockTimestamp - blockTimestampLast; // overflow is desired\n\n        // ensure that at least one full period has passed since the last update\n        require(timeElapsed >= PERIOD, 'ExampleOracleSimple: PERIOD_NOT_ELAPSED');\n\n        // overflow is desired, casting never truncates\n        // cumulative price is in (uq112x112 price * seconds) units so we simply wrap it after division by time elapsed\n        price0Average = FixedPoint.uq112x112(uint224((price0Cumulative - price0CumulativeLast) / timeElapsed));\n        price1Average = FixedPoint.uq112x112(uint224((price1Cumulative - price1CumulativeLast) / timeElapsed));\n\n        price0CumulativeLast = price0Cumulative;\n        price1CumulativeLast = price1Cumulative;\n        blockTimestampLast = blockTimestamp;\n    }\n\n    // note this will always return 0 before update has been called successfully for the first time.\n    function consult(address token, uint amountIn) external view returns (uint amountOut) {\n        if (token == token0) {\n            amountOut = price0Average.mul(amountIn).decode144();\n        } else {\n            require(token == token1, 'ExampleOracleSimple: INVALID_TOKEN');\n            amountOut = price1Average.mul(amountIn).decode144();\n        }\n    }\n}\n",
  "sourcePath": "/mnt/6b0867de-74e1-417d-8281-ce67ccf712c6/LocalD/upwork/Rob-SeaSwap/Seaswap-project/uniswap-v2-periphery/contracts/examples/ExampleOracleSimple.sol",
  "compiler": {
    "name": "solc",
    "version": "0.6.6+commit.6c089d02.Emscripten.clang"
  },
  "schemaVersion": "3.0.23",
  "updatedAt": "2021-01-21T15:27:32.970Z",
  "devdoc": {
    "methods": {}
  },
  "userdoc": {
    "methods": {}
  }
}