{
  "contractName": "SeaSwapV2Migrator",
  "abi": [
    {
      "inputs": [
        {
          "internalType": "address",
          "name": "_factoryV1",
          "type": "address"
        },
        {
          "internalType": "address",
          "name": "_router",
          "type": "address"
        }
      ],
      "stateMutability": "nonpayable",
      "type": "constructor"
    },
    {
      "stateMutability": "payable",
      "type": "receive"
    },
    {
      "inputs": [
        {
          "internalType": "address",
          "name": "token",
          "type": "address"
        },
        {
          "internalType": "uint256",
          "name": "amountTokenMin",
          "type": "uint256"
        },
        {
          "internalType": "uint256",
          "name": "amountETHMin",
          "type": "uint256"
        },
        {
          "internalType": "address",
          "name": "to",
          "type": "address"
        },
        {
          "internalType": "uint256",
          "name": "deadline",
          "type": "uint256"
        }
      ],
      "name": "migrate",
      "outputs": [],
      "stateMutability": "nonpayable",
      "type": "function"
    }
  ],
  "bytecode": "0x60c060405234801561001057600080fd5b506040516109073803806109078339818101604052604081101561003357600080fd5b5080516020909101516001600160601b0319606092831b8116608052911b1660a05260805160601c60a05160601c6108806100876000398061030752806103775280610409525080608352506108806000f3fe6080604052600436106100225760003560e01c8063b7df1d251461002e57610029565b3661002957005b600080fd5b34801561003a57600080fd5b5061007d600480360360a081101561005157600080fd5b506001600160a01b0381358116916020810135916040820135916060810135909116906080013561007f565b005b60007f00000000000000000000000000000000000000000000000000000000000000006001600160a01b03166306f2bf62876040518263ffffffff1660e01b815260040180826001600160a01b03166001600160a01b0316815260200191505060206040518083038186803b1580156100f757600080fd5b505afa15801561010b573d6000803e3d6000fd5b505050506040513d602081101561012157600080fd5b5051604080516370a0823160e01b815233600482015290519192506000916001600160a01b038416916370a08231916024808301926020929190829003018186803b15801561016f57600080fd5b505afa158015610183573d6000803e3d6000fd5b505050506040513d602081101561019957600080fd5b5051604080516323b872dd60e01b81523360048201523060248201526044810183905290519192506001600160a01b038416916323b872dd916064808201926020929091908290030181600087803b1580156101f457600080fd5b505af1158015610208573d6000803e3d6000fd5b505050506040513d602081101561021e57600080fd5b5051610268576040805162461bcd60e51b81526020600482015260146024820152731514905394d1915497d19493d357d1905253115160621b604482015290519081900360640190fd5b60408051637c45f8ad60e11b81526004810183905260016024820181905260448201526000196064820152815160009283926001600160a01b0387169263f88bf15a9260848084019391929182900301818787803b1580156102c957600080fd5b505af11580156102dd573d6000803e3d6000fd5b505050506040513d60408110156102f357600080fd5b508051602090910151909250905061032c897f000000000000000000000000000000000000000000000000000000000000000083610462565b6040805163f305d71960e01b81526001600160a01b038b8116600483015260248201849052604482018b9052606482018a9052888116608483015260a48201889052915160009283927f00000000000000000000000000000000000000000000000000000000000000009091169163f305d71991879160c480830192606092919082900301818588803b1580156103c257600080fd5b505af11580156103d6573d6000803e3d6000fd5b50505050506040513d60608110156103ed57600080fd5b5080516020909101519092509050818311156104415761042f8b7f00000000000000000000000000000000000000000000000000000000000000006000610462565b61043c8b338486036105cc565b610455565b80841115610455576104553382860361072f565b5050505050505050505050565b604080516001600160a01b038481166024830152604480830185905283518084039091018152606490920183526020820180516001600160e01b031663095ea7b360e01b178152925182516000946060949389169392918291908083835b602083106104df5780518252601f1990920191602091820191016104c0565b6001836020036101000a0380198251168184511680821785525050505050509050019150506000604051808303816000865af19150503d8060008114610541576040519150601f19603f3d011682016040523d82523d6000602084013e610546565b606091505b5091509150818015610574575080511580610574575080806020019051602081101561057157600080fd5b50515b6105c5576040805162461bcd60e51b815260206004820152601e60248201527f5472616e7366657248656c7065723a20415050524f56455f4641494c45440000604482015290519081900360640190fd5b5050505050565b604080516001600160a01b038481166024830152604480830185905283518084039091018152606490920183526020820180516001600160e01b031663a9059cbb60e01b178152925182516000946060949389169392918291908083835b602083106106495780518252601f19909201916020918201910161062a565b6001836020036101000a0380198251168184511680821785525050505050509050019150506000604051808303816000865af19150503d80600081146106ab576040519150601f19603f3d011682016040523d82523d6000602084013e6106b0565b606091505b50915091508180156106de5750805115806106de57508080602001905160208110156106db57600080fd5b50515b6105c5576040805162461bcd60e51b815260206004820152601f60248201527f5472616e7366657248656c7065723a205452414e534645525f4641494c454400604482015290519081900360640190fd5b604080516000808252602082019092526001600160a01b0384169083906040518082805190602001908083835b6020831061077b5780518252601f19909201916020918201910161075c565b6001836020036101000a03801982511681845116808217855250505050505090500191505060006040518083038185875af1925050503d80600081146107dd576040519150601f19603f3d011682016040523d82523d6000602084013e6107e2565b606091505b50509050806108225760405162461bcd60e51b81526004018080602001828103825260238152602001806108286023913960400191505060405180910390fd5b50505056fe5472616e7366657248656c7065723a204554485f5452414e534645525f4641494c4544a2646970667358221220521be1cd6c508643d1d9449646d195ca9f716244a393ddc9105e38545165f16a64736f6c63430006060033",
  "immutableReferences": {
    "44": [
      {
        "length": 32,
        "start": 131
      }
    ],
    "46": [
      {
        "length": 32,
        "start": 775
      },
      {
        "length": 32,
        "start": 887
      },
      {
        "length": 32,
        "start": 1033
      }
    ]
  },
  "source": "pragma solidity =0.6.6;\n\nimport '@uniswap/lib/contracts/libraries/TransferHelper.sol';\n\nimport './interfaces/ISeaSwapV2Migrator.sol';\nimport './interfaces/V1/ISeaSwapV1Factory.sol';\nimport './interfaces/V1/ISeaSwapV1Exchange.sol';\nimport './interfaces/ISeaSwapV2Router01.sol';\nimport './interfaces/IERC20.sol';\n\ncontract SeaSwapV2Migrator is ISeaSwapV2Migrator {\n    ISeaSwapV1Factory immutable factoryV1;\n    ISeaSwapV2Router01 immutable router;\n\n    constructor(address _factoryV1, address _router) public {\n        factoryV1 = ISeaSwapV1Factory(_factoryV1);\n        router = ISeaSwapV2Router01(_router);\n    }\n\n    // needs to accept ETH from any v1 exchange and the router. ideally this could be enforced, as in the router,\n    // but it's not possible because it requires a call to the v1 factory, which takes too much gas\n    receive() external payable {}\n\n    function migrate(address token, uint amountTokenMin, uint amountETHMin, address to, uint deadline)\n        external\n        override\n    {\n        ISeaSwapV1Exchange exchangeV1 = ISeaSwapV1Exchange(factoryV1.getExchange(token));\n        uint liquidityV1 = exchangeV1.balanceOf(msg.sender);\n        require(exchangeV1.transferFrom(msg.sender, address(this), liquidityV1), 'TRANSFER_FROM_FAILED');\n        (uint amountETHV1, uint amountTokenV1) = exchangeV1.removeLiquidity(liquidityV1, 1, 1, uint(-1));\n        TransferHelper.safeApprove(token, address(router), amountTokenV1);\n        (uint amountTokenV2, uint amountETHV2,) = router.addLiquidityETH{value: amountETHV1}(\n            token,\n            amountTokenV1,\n            amountTokenMin,\n            amountETHMin,\n            to,\n            deadline\n        );\n        if (amountTokenV1 > amountTokenV2) {\n            TransferHelper.safeApprove(token, address(router), 0); // be a good blockchain citizen, reset allowance to 0\n            TransferHelper.safeTransfer(token, msg.sender, amountTokenV1 - amountTokenV2);\n        } else if (amountETHV1 > amountETHV2) {\n            // addLiquidityETH guarantees that all of amountETHV1 or amountTokenV1 will be used, hence this else is safe\n            TransferHelper.safeTransferETH(msg.sender, amountETHV1 - amountETHV2);\n        }\n    }\n}\n",
  "sourcePath": "/mnt/6b0867de-74e1-417d-8281-ce67ccf712c6/LocalD/upwork/Rob-SeaSwap/Seaswap-project/uniswap-v2-periphery/contracts/SeaSwapV2Migrator.sol",
  "compiler": {
    "name": "solc",
    "version": "0.6.6+commit.6c089d02.Emscripten.clang"
  },
  "schemaVersion": "3.3.3",
  "updatedAt": "2020-12-26T06:56:39.535Z",
  "devdoc": {
    "methods": {}
  },
  "userdoc": {
    "methods": {}
  }
}